:020000040000FA
:020000000FD01F
:020002000000FC
:10002000836A8C6A956A070EB46E0A6A3B0EC16ECB
:10003000000EC26E080EC06EC2808C6A45EC00F0E5
:1000400005502808D8B806D005506E08D8B80BD08F
:1000500013D0F3D78C908C8245EC00F00550280823
:10006000D8B8FAD7EAD78C808C9245EC00F00550CE
:100070006E08D8B8FAD7E1D78C908C9245EC00F096
:1000800005506E08D8A8FAD7D8D7C282C2B2FED718
:0A009000C3CF06F0C4CF05F0120044
:020000040030CA
:0100000000FF
:010001000CF2
:010002001FDE
:010003001EDE
:0100050003F7
:010006008178
:010008000FE8
:01000900C036
:01000A000FE6
:01000B00E014
:01000C000FE4
:01000D0040B2
:00000001FF
