:020000040000FA
:10000000816A836A936A956A68EC00F08392380E7D
:1000100084EC00F0800E84EC00F0560E7BEC00F0D7
:100020004F0E7BEC00F04C0E7BEC00F0540E7BECA2
:1000300000F0410E7BEC00F04A0E7BEC00F0450E28
:100040007BEC00F03A0E7BEC00F0B2EC00F00E0E10
:10005000C16E000EC26E3D0EC06EC280C46AC36A1D
:10006000F46AF36A0F6A106A116A126AC282C2B233
:1000700037EF00F0C450050DF4CF0FF0F350050F2B
:1000800001E30F2A0A0DF4CF10F0F3500A0DF4CF5C
:1000900011F0F3500A0DF4CF12F0C00E84EC00F012
:1000A0000F50300F7BEC00F02E0E7BEC00F0105068
:1000B000300F7BEC00F01150300F7BEC00F0125051
:1000C000300F7BEC00F0560E7BEC00F02EEF00F0D2
:1000D0008DEC00F0300E816E96EC00F0300E816EEB
:1000E000ADEC00F0ADEC00F0300E816E0F0E816EC5
:1000F0008382839212008380816E8382ADEC00F054
:1001000083928DEC00F012008390816E8382ADECBF
:1001100000F08392ADEC00F01200F70E0C6E1A0E98
:100120000D6E0C2EFED70D2EFCD71200920E0C6E0B
:10013000070E0D6E0C2EFED70D2EFCD71200410EB1
:100140000C6E0C2EFED71200970E0C6E030E0D6E69
:100150000C2EFED70D2EFCD712000F0E0C6E0C2E9F
:10016000FED712000C6A0D6A030E0E6E0C2EFED71F
:0A0170000D2EFCD70E2EFAD7120058
:02017A00000083
:020000040030CA
:010001000CF2
:0100020018E5
:010003001EDE
:010005008179
:010006008178
:00000001FF
