:020000040000FA
:0400000010EF00F00D
:020004000000FA
:10002000D3B600D0D3A6FED7F29EF29C806A896A2E
:100030000F0EC16E070EB46E000E926E816A8A6A50
:10004000070E936E8A6A836A8C6A000E956E8C6ABC
:0200500057D087
:100100008150070B8C6F8C51000AD8B41DD88C51CC
:10011000010AD8B455D88C51020AD8B48CD88C5165
:10012000030AD8B4C9D88C51040AD8B403D98C5165
:10013000050AD8B43ED98C51060AD8B47AD98C5164
:10014000070AD8B4B3D9DCD78A6B8A51896FEBD947
:10015000100E886F89510FD88C6EEED9020EFED921
:10016000892B892B882FF6D78A2B8A2B8A512A0A2A
:10017000D8A4EBD71200F926000C000C000C000CE0
:10018000000C000C000C000C000C000C000C000C0F
:10019000000C000C000C000C7D0C230C3F0C6D0CB3
:1001A000000C000C000C000C000C000C000C000CEF
:1001B000000C000C000C000C000C000C000C000CDF
:1001C0008A6B8A51896FAFD9100E886F89510FD809
:1001D0008C6EB2D9020EC2D9892B892B882FF6D703
:1001E0008A2B8A2B8A512A0AD8A4EBD71200F92627
:1001F000000C000C000C000C000C000C000C000C9F
:10020000000C000C000C000C000C000C000C000C8E
:10021000760C210C760C000C000C000C000C000C71
:10022000000C000C000C000C000C000C000C000C6E
:10023000000C000C000C8A6B8A51896F74D9100E67
:10024000886F89510FD88C6E77D9020E87D9892B88
:10025000892B882FF6D78A2B8A2B8A512A0AD8A471
:10026000EBD71200F926000C000C000C000C000C5F
:10027000000C000C000C000C000C000C000C000C1E
:10028000000C000C000C760C730C230C7D0C1C0C69
:10029000210C7E0C210C4F0C000C000C000C000CEF
:1002A000000C000C000C000C000C000C000C000CEE
:1002B000000C000C000C000C8A6B8A51896F33D93A
:1002C000100E886F89510FD88C6E36D9020E46D920
:1002D000892B892B882FF6D78A2B8A2B8A512A0AB9
:1002E000D8A4EBD71200F926000C000C000C000C6F
:1002F000000C000C000C000C000C000C000C000C9E
:10030000000C000C000C000C3F0C0F0C730C790C53
:10031000760C730C000C000C000C000C000C000C94
:10032000000C000C000C000C000C000C000C000C6D
:10033000000C000C8A6B8A51896FF5D8100E886FFB
:1003400089510FD88C6EF8D8020E08D9892B892BC9
:10035000882FF6D78A2B8A2B8A512A0AD8A4EBD762
:100360001200F926000C000C000C000C000C000C14
:10037000000C000C000C000C000C000C000C000C1D
:10038000000C000C760C730C450C7D0C730C210CCE
:100390002F0C000C000C000C000C000C000C000CCE
:1003A000000C000C000C000C000C000C000C000CED
:1003B000000C8A6B8A51896FB6D8100E886F8951EC
:1003C0000FD88C6EB9D8020EC9D8892B892B882FEB
:1003D000F6D78A2B8A2B8A512A0AD8A4EBD7120087
:1003E000F926000C000C000C000C000C000C000C9A
:1003F000000C000C000C000C000C000C000C000C9D
:10040000000C760C400C5E0C2D0C3F0C0C0C400CC0
:100410003C0C000C000C000C000C000C000C000C40
:10042000000C000C000C000C000C000C000C000C6C
:10043000000C8A6B8A51896F76D8100E886F8951AB
:100440000FD88C6E79D8020E89D8892B892B882FEA
:10045000F6D78A2B8A2B8A512A0AD8A4EBD7120006
:10046000F926000C000C000C000C000C000C000C19
:10047000000C000C000C000C000C000C000C000C1C
:10048000000C730C4F0C410C7D0C1C0C000C000C70
:10049000000C000C000C000C000C000C000C000CFC
:1004A000000C000C000C000C000C000C8A6B8A5134
:1004B000896F39D8100E886F89510FD88C6E3CD84F
:1004C000020E4CD8892B892B882FF6D78A2B8A2BA2
:1004D0008A512A0AD8A4EBD71200F926000C000C86
:1004E000000C000C000C000C000C000C000C000CAC
:1004F000000C000C000C000C000C000C760C3F0CE7
:10050000210C4F0C7D0C000C000C000C000C000C9E
:10051000000C000C000C000C000C000C000C000C7B
:10052000000C000C000C140E876F06D8872FFDD727
:100530008A988A868A9612008A888A868A96120003
:10054000866F06D805D804D803D8862FFAD71200AC
:10055000FA0E856F08D8852FFDD71200856F03D856
:10056000852FFDD71200640E846F03D8842FFDD72A
:0C05700012000F0E836F832FFED71200C5
:020000040030CA
:0100000000FF
:01000100CC32
:0100020018E5
:010003001EDE
:010005008179
:010006008178
:010008000FE8
:01000900C036
:01000A000FE6
:01000B00E014
:01000C000FE4
:01000D0040B2
:00000001FF
