:020000040000FA
:020000000FD01F
:100020008B6A8C6A826A836A0F0EC16E070EB46E89
:100030000F0E956E946A80EC01F0046A80EC00F07B
:100040000450000AD8B405D0A2EC00F08DEC00F00A
:1000500000D034EC00F034EC01F000EC01F008ECDE
:1000600002F046EC02F0F5D7010E93EC01F0800EA1
:1000700093EC01F0016A006A4DEC00F0006E000A9A
:10008000D8B405D0005097EC01F0012AF4D7ACECBD
:1000900001F0430AD8A4FBD712000144F926200C32
:1000A000200C200C420C490C450C4E0C560C450CF7
:1000B0004E0C490C440C4F0C200C200C200C000C56
:10010000046A036A026AC8EC00F00250FF0AD8B41D
:10011000042A032A03A4F6D71200C60E93EC01F0BA
:10012000036A026AACEC01F0006E000AD8B4F9D799
:100130000050026E97EC01F0D0EC00F0032A03A40B
:10014000F0D71200010E93EC01F0800E93EC01F059
:10015000016A006AB5EC00F0006E000AD8B4120023
:10016000005097EC01F0012AF4D70144F926200C45
:10017000200C4E0C450C570C200C500C410C530C11
:10018000530C570C4F0C520C440C200C200C000C40
:1001900003C0A9FFA69EA69CA680A8CF02F01200CD
:1001A00003C0A9FF02C0A8FFA69EA69CA684F29E3B
:1001B000550EA76EAA0EA76EA682A6B2FED7A6946B
:0201C00012002B
:10020000036A046AC60E93EC01F0200E97EC01F02D
:10021000200E97EC01F0200E97EC01F0200E97ECE9
:1002200001F0200E97EC01F0C60E93EC01F0026A8B
:10023000ACEC01F0006E000AD8B4F9D7005097EC8E
:1002400001F0C8EC00F000500218D8B4042A032AC8
:1002500003A4EDD704B412005AEC01F0ACEC01F0A9
:10026000430AD8A4FBD7CCD7010E93EC01F0800E43
:1002700093EC01F0016A006A47EC01F0006E000A9D
:10028000D8B41200005097EC01F0012AF4D70144D1
:10029000F926200C200C500C550C540C200C500C42
:1002A000410C530C530C570C4F0C520C440C200CAB
:1002B000200C000CC00E93EC01F0016A006A6AEC9D
:1002C00001F0006E000AD8B41200005097EC01F063
:1002D000012AF4D70144F926200C200C200C200C14
:1002E000200C200C450C520C520C4F0C520C200CC4
:0A02F000200C200C200C200C000C48
:100300000A0EF8EC01F0320E93EC01F0280E93EC9B
:1003100001F00D0E93EC01F0060E93EC01F0010ECE
:1003200093EC01F012008B909BEC01F012008B809B
:100330009BEC01F01200076E8C6E8B82FEEC01F0DC
:100340008B92FEEC01F007388C6E8B82FEEC01F094
:100350008B92FEEC01F01200F00E8C6E83500F0BAE
:10036000086E000AD8B4000C0850D4EC01F0086EF6
:10037000EF0E096E0950F00B8C6E83500F0B000AC4
:10038000D8B404D009AE000C0946F4D7DDEC01F076
:100390000826F00E8C6E83500F0B000AD8A4F9D7F4
:1003A0000844E6EC01F0120008B0010C08B2020C9F
:1003B00008B4030C08B6040C000C09A8000C09AA28
:1003C000040C09AC080C09AE0C0C000CF926200C2E
:1003D000370C340C310C430C380C350C320C300C0F
:1003E000390C360C330C3D0C2F0C2A0C2D0C2B0C1D
:1003F000066EFEEC01F0062EFCD71200F80E056E1C
:0E0400000000052EFDD70000000000001200D5
:02040E000000EC
:10041000010E93EC01F0800E93EC01F0016A006A8A
:100420001BEC02F0006E000AD8B41200005097ECEA
:1004300001F0012AF4D70144F926410C430C430C86
:10044000450C530C4F0C200C410C550C540C4F0C0C
:10045000520C490C5A0C410C440C4F0C200C200C33
:10046000510C550C450C200C540C450C4E0C470CF3
:10047000410C200C550C4E0C200C420C550C450C1C
:100480004E0C200C440C490C410C000C180E93EC43
:0C04900001F03F0EF8EC01F0F9D712006B
:020000040030CA
:0100000000FF
:0100010008F6
:0100020019E4
:010003001EDE
:0100050000FA
:010006008178
:010008000FE8
:01000900C036
:01000A000FE6
:01000B00E014
:01000C000FE4
:01000D0040B2
:00000001FF
