:020000040000FA
:020000000528D1
:040002000034003492
:080008004428831286018501E2
:1000100007309F0083168E1502308600051085106C
:1000200005118511051385138312860185018B1730
:100030000B1783168C1683120A30C6203230B32079
:100040002830B3200D30B3200630B3200130B32068
:10005000FF30C62098178316043098001930990095
:100060008312C830980018168030B320A5010A14F6
:1000700000210A10A600003A031942282608B620DB
:10008000A50A3728630042288C121A08383A031947
:100090005A281A08343A031999281A08363A0319C3
:1000A000A6281A08353A03196C281A08323A031997
:1000B00087280900843085000130B3208030B320C8
:1000C000A5010A1413210A10A600003A0319090019
:1000D0002608B620A50A6128003085000130B3202B
:1000E0008030A300A5012308B3200A1426210A109A
:1000F000A600003A031909002608B620A50AA30A9B
:100100002308903A031D7328C030A3007328483099
:1001100085000130B3208030B320A5010A144921A5
:100120000A10A600003A031909002608B620A50AFD
:100130008E2805118511FF30C620851FA028A32811
:10014000051185150900051585110900851305138D
:10015000FF30C620051DAD28B028851305170900FE
:100160008517051309000510B92008000514B920EA
:100170000800A20086008514CB208510CB20220E1B
:1001800086008514CB208510CB200800A100CB2051
:10019000A10BC7280800F830A0000000A00BCD2854
:0801A00000000000000008004F
:100200002508820720342034203420342034203440
:1002100048344F344C34413420342034203420349A
:100220002034203400342508820720342034203440
:1002300020342034203447344F34213421342134C5
:100240002034203420342034203400342508820720
:100250002034203420342034453453345034453451
:10026000523441344E3444344F342034203420341A
:100270002034203449344E345334543452345534B9
:100280004334433449344F344E34453453342034AA
:10029000003425088207203443345534493444342B
:1002A000413444344F3420344234493443344134AB
:0802B0005334203420340034E3
:02400E00103F61
:00000001FF
