:020000040000FA
:0400000080EF00F09D
:020004000000FA
:0200080014D012
:08001800D8CF81F0E8CF80F0A1
:10002000E0CF82F082C0E0FF80C0E8FF81C0D8FF4F
:0400300010001100AB
:10010000836A8C6A300E956E836A8C6A83B805D8D0
:1001100032D883BA15D82FD8F9D78C802CD88C96A2
:100120002AD88C8228D88C9026D88C8424D88C927B
:1001300022D88C8620D88C941ED883B8EED7120093
:100140008C8619D88C9017D88C8415D88C9613D897
:100150008C8211D88C940FD88C800DD88C920BD8AF
:1001600083BAEED71200866F06D805D804D803D814
:10017000862FFAD71200FA0E856F0DD8852FFDD77E
:100180001200856F08D8852FFDD71200856F03D820
:10019000852FFDD71200640E846F03D8842FFDD7FE
:0C01A00012000F0E836F832FFED7120099
:020000040030CA
:0100000000FF
:01000100CC32
:0100020018E5
:010003001EDE
:010005008179
:010006008178
:010008000FE8
:01000900C036
:01000A000FE6
:01000B00E014
:01000C000FE4
:01000D0040B2
:00000001FF
